:100000000C945E000C9486000C9486000C94860080
:100010000C9486000C9486000C9486000C94860048
:100020000C9486000C9486000C9486000C94860038
:100030000C9486000C9486000C9486000C94860028
:100040000C944E030C9486000C94BE030C949803FD
:100050000C9486000C9486000C9486000C94860008
:100060000C9486000C9486000000000024002700F9
:100070002A0000000000250028002B0004040404CE
:100080000404040402020202020203030303030342
:10009000010204081020408001020408102001021F
:1000A00004081020000000080002010000030407FB
:1000B0000000000000000000F003740611241FBEC1
:1000C000CFEFD8E0DEBFCDBF22E0A8E8B1E001C0AD
:1000D0001D92A134B207E1F711E0A0E0B1E0EAE43B
:1000E000F2E102C005900D92A838B107D9F710E0EF
:1000F000CDE5D0E004C02197FE010E940F07CC356A
:10010000D107C9F70E9422040C9418090C9400002E
:10011000E1EBF0E02491EDE9F0E09491E9E8F0E022
:10012000E491EE23C9F0222339F0233001F1A8F441
:10013000213019F1223029F1F0E0EE0FFF1FEE58C7
:10014000FF4FA591B4912FB7F894EC91811126C07F
:1001500090959E239C932FBF08952730A9F02830B7
:10016000C9F0243049F7209180002F7D03C02091F1
:1001700080002F7720938000DFCF24B52F7724BD18
:10018000DBCF24B52F7DFBCF2091B0002F772093BC
:10019000B000D2CF2091B0002F7DF9CF9E2BDACFC7
:1001A000AF92BF92CF92DF92EF92FF920F931F9385
:1001B000CF93DF936C017B018B01040F151FEB01C3
:1001C0005E01AE18BF08C017D10759F06991D6017A
:1001D000ED91FC910190F081E02DC6010995892BEC
:1001E00079F7C501DF91CF911F910F91FF90EF90AB
:1001F000DF90CF90BF90AF900895FC01538D448D58
:10020000252F30E0842F90E0821B930B541710F0C1
:10021000CF96089501970895FC01918D828D9817CE
:1002200061F0A28DAE0FBF2FB11D5D968C91928DA6
:100230009F5F9F73928F90E008958FEF9FEF0895D7
:100240002FB7F8948091960190919701A091980111
:10025000B09199012FBF8093A2019093A301A09325
:10026000A401B093A5018AE991E00E940C0197FFD7
:1002700026C02FB7F8948091960190919701A09194
:100280009801B09199012FBF4091A2015091A30113
:100290006091A4017091A501841B950BA60BB70B6F
:1002A00040919E0150919F016091A0017091A10128
:1002B00084179507A607B707B0F28FEF9FEF089551
:1002C000FC01918D828D981731F0828DE80FF11D20
:1002D000858D90E008958FEF9FEF0895FC01918D3B
:1002E000228D892F90E0805C9F4F821B91098F7334
:1002F000992708958AE991E00E946E0121E0892BF7
:1003000009F420E0822F089580E090E0892B29F005
:100310000E947A0181110C9400000895FC01A48DC3
:10032000A80FB92FB11DA35ABF4F2C91848D90E017
:1003300001968F739927848FA689B7892C93A089FA
:10034000B1898C91837080648C93938D848D981384
:1003500006C00288F389E02D80818F7D8083089517
:10036000EF92FF920F931F93CF93DF93EC0181E005
:10037000888F9B8D8C8D98131AC0E889F9898081AC
:1003800085FF15C09FB7F894EE89FF896083E889DF
:10039000F98980818370806480839FBF81E090E0D1
:1003A000DF91CF911F910F91FF90EF900895F62E5E
:1003B0000B8D10E00F5F1F4F0F731127E02E8C8DF8
:1003C0008E110CC00FB607FCFACFE889F98980813D
:1003D00085FFF5CFCE010E948E01F1CFEB8DEC0FA2
:1003E000FD2FF11DE35AFF4FF0829FB7F8940B8F5A
:1003F000EA89FB8980818062CFCFCF93DF93EC01C4
:10040000888D8823B9F0AA89BB89E889F9898C91FC
:1004100085FD03C0808186FD0DC00FB607FCF7CFB8
:100420008C9185FFF2CF808185FFEDCFCE010E94B8
:100430008E01E9CFDF91CF91089542E050E068E16D
:1004400071E08AE991E00C94D000CF93DF93FC0136
:1004500044815581608171818AE991E00E94D000D8
:10046000EC010E941D028C0F9D1FDF91CF9108951A
:10047000FC0124813581232B39F421E0FB018081AB
:10048000882349F020E007C0808191810E940809FB
:1004900021E0892BB9F7822F08950F931F93CF93F3
:1004A000DF93EC0188819981009759F02A813B8183
:1004B0002617370730F081E0DF91CF911F910F9120
:1004C00008958B016F5F7F4F0E943A08009759F0A3
:1004D000998388831B830A832C813D81232B59F7C1
:1004E000FC011082E8CF80E0E7CFEF92FF920F93FC
:1004F0001F93CF93DF936115710541F480E0DF9185
:10050000CF911F910F91FF90EF90089541155105E4
:10051000B1F07B01EC010C811D81040F151FB801A6
:100520000E944D02882351F3288139818C819D815D
:10053000B701820F931F0E9411091D830C8381E074
:10054000DECFCF93DF93EC0188819981009711F082
:100550000E94B107198218821D821C821B821A8296
:10056000DF91CF910895CF93DF93EC01FB010190D0
:100570000020E9F73197AF01461B570B0E94750227
:10058000811103C0CE010E94A102CE01DF91CF9163
:100590000895CF93DF93EC01FB0144815581608185
:1005A00071810E947502811103C0CE010E94A102D7
:1005B000CE01DF91CF910895EF92FF920F931F9399
:1005C000CF93DF93EC017B018A01BA010E944D02B7
:1005D00081110BC0CE010E94A102CE01DF91CF910B
:1005E0001F910F91FF90EF9008951D830C83B70129
:1005F000888199810E941109F0CFEF92FF920F93A9
:100600001F93CF93DF93CDB7DEB7A1970FB6F894C2
:10061000DEBF0FBECDBF8C01CB01BA01F801118244
:10062000108213821282158214822AE0AE014F5F7B
:100630005F4F7A010E947806F70101900020E9F7E8
:100640003197AF014E195F09B701C8010E94DC0262
:10065000A1960FB6F894DEBF0FBECDBFDF91CF914C
:100660001F910F91FF90EF900895FC01118210826D
:100670001382128215821482FB0101900020E9F797
:100680003197AF01461B570B0C94DC02FC018081B3
:100690009181009711F00C94B10708951F920F9269
:1006A0000FB60F9211242F933F938F939F93AF9385
:1006B000BF938091960190919701A0919801B0917C
:1006C00099013091950123E0230F2D3758F50196BC
:1006D000A11DB11D209395018093960190939701E0
:1006E000A0939801B093990180919101909192010A
:1006F000A0919301B09194010196A11DB11D809329
:10070000910190939201A0939301B0939401BF91B2
:10071000AF919F918F913F912F910F900FBE0F90AE
:100720001F90189526E8230F0296A11DB11DD2CF68
:100730001F920F920FB60F9211242F933F934F9356
:100740005F936F937F938F939F93AF93BF93EF9339
:10075000FF938AE991E00E948E01FF91EF91BF9192
:10076000AF919F918F917F916F915F914F913F9149
:100770002F910F900FBE0F901F9018951F920F9200
:100780000FB60F9211242F938F939F93EF93FF93A4
:10079000E091AA01F091AB018081E091B001F0916C
:1007A000B10182FD1BC090818091B3018F5F8F7377
:1007B0002091B401821741F0E091B301F0E0E656D8
:1007C000FE4F958F8093B301FF91EF919F918F9191
:1007D0002F910F900FBE0F901F9018958081F4CF2E
:1007E000EAE9F1E01382128288EE93E0A0E0B0E043
:1007F00084839583A683B7838AE091E09183808385
:1008000085EC90E09587848784EC90E097878687D5
:1008100080EC90E0918B808B81EC90E0938B828BCD
:1008200082EC90E0958B848B86EC90E0978B868BA6
:10083000118E128E138E148E6BE171E087E392E0BD
:100840000C943503CF93DF93CDB7DEB762970FB625
:10085000F894DEBF0FBECDBF789484B5826084BDAE
:1008600084B5816084BD85B5826085BD85B58160B4
:1008700085BD80916E00816080936E001092810032
:1008800080918100826080938100809181008160ED
:1008900080938100809180008160809380008091AE
:1008A000B10084608093B1008091B000816080933A
:1008B000B00080917A00846080937A0080917A0001
:1008C000826080937A0080917A00816080937A00C0
:1008D00080917A00806880937A001092C100EDE9DF
:1008E000F0E02491E9E8F0E08491882399F090E029
:1008F000880F991FFC01E859FF4FA591B491FC01A5
:10090000EE58FF4F859194918FB7F894EC91E22BBC
:10091000EC938FBFE091AA01F091AB0182E080835C
:10092000E091A601F091A7011082E091A801F09159
:10093000A9018FEC80831092B201E091AE01F09199
:10094000AF0186E08083E091AC01F091AD01808140
:1009500080618083E091AC01F091AD01808188607D
:100960008083E091AC01F091AD018081806880834B
:10097000E091AC01F091AD0180818F7D80834CE2EC
:1009800050E061E271E08AE991E00E94D0000E94AB
:100990001D0288EE482E83E0582E612C712C3324E2
:1009A000339490E0892E90E0992E8AE991E00E949C
:1009B0006E01892B09F4F0C06AE171E0CE010D9659
:1009C0000E9435030E94200197FD0FC08A309105D7
:1009D00061F089831A8241E050E0BE016F5F7F4F72
:1009E000CE010D960E947502EDCFCD84DE84C11438
:1009F000D10431F009891A89760101151105B1F484
:100A00000D851E850115110509F446C0F801819177
:100A10008F01882309F440C0082E000C990B0E9416
:100A2000F708F80131978083F1CF750157012FEF57
:100A3000A21AB20AF7018081082E000C990B0E94BD
:100A40009A06892B91F7015011090C0D1D1DF80113
:100A50008081082E000C990B0E949A06892B31F098
:100A60000E151F0518F001501109F1CFA8014F5FB5
:100A70005F4F4E195F095A8B498BCE14DF0420F467
:100A8000B701C6010E94FF08ED85FE8589899A8914
:100A9000E80FF91F1082B4CF6EE471E0CE010D961D
:100AA0000E943802811110C061E571E0CE010D96FF
:100AB0000E943802811108C06BE171E0CE010D96F1
:100AC0000E943802882319F16D857E8561157105B4
:100AD000C9F049895A8987E392E00E94DC0265E502
:100AE00071E0CE0101960E94350367E372E0CE010A
:100AF00001960E94C9020E942502CE0101960E9421
:100B0000460346C087E392E00E94A102E8CF67E473
:100B100071E0CE010D960E943802882309F4A7C027
:100B20002FB7F89460919601709197018091980188
:100B3000909199012FBFA30192010E94ED06BA0185
:100B4000A901CE0101960E94FD0268E571E0CE0187
:100B500007960E94350367E372E0CE0107960E9474
:100B6000C9026EE571E00E94B302BE016F5F7F4F64
:100B70000E94C9026CE471E00E94B3020E94250247
:100B8000CE0107960E944603CE0101960E944603BD
:100B9000CE010D960E9446038FB7F894C09096013F
:100BA000D0909701E0909801F09099018FBF6EE48A
:100BB00071E087E392E00E943802882309F466C05E
:100BC00081E00E9488008091880190918901A09124
:100BD0008A01B0918B01A7019601281B390B4A0BA2
:100BE0005B0BDA01C901803D9740A105B10598F181
:100BF000C0928801D0928901E0928A01F0928B0123
:100C0000C701B601A30192010E94ED06BA01A90134
:100C1000CE0101960E94FD0269E771E0CE010796C0
:100C20000E943503BE016F5F7F4FCE0107960E9481
:100C3000C90260E871E00E94B30267E372E00E94BB
:100C4000C9020E942502CE0107960E944603CE01EA
:100C500001960E9446038114910409F4A6CE0E94D5
:100C60007A01882309F4A1CE0E9400009ECE8989D2
:100C70009A89892B09F48CCF67E671E0CE01019641
:100C80000E943503BE01635F7F4F31CF61E571E0A4
:100C900087E392E00E943802882311F080E091CF30
:100CA00080918D0190918E01A0918F01B091900162
:100CB000A7019601281B390B4A0B5B0BDA01C9010E
:100CC000843F9140A105B10508F47DCFC0928D010C
:100CD000D0928E01E0928F01F092900180918C0170
:100CE000832580938C016DCF87E392E00C944603BB
:100CF000BB27FA01A62F6217710581059105330BF9
:100D000030FB66F0AA27660F771F881F991FAA1F5E
:100D1000A21710F0A21B63953850A9F7A05DAA3363
:100D200008F0A95DA19336F7B111B1931082CA0101
:100D30000C94A30691110C94B306803219F08950DB
:100D40008550C8F70895DC01FC01672F7191772366
:100D5000E1F7329704C07C916D9370836291AE1776
:100D6000BF07C8F308959927882708952F923F92C7
:100D70004F925F926F927F928F929F92AF92BF92AB
:100D8000CF92DF92EF92FF920F931F93CF93DF9357
:100D9000CDB7DEB7CA1BDB0B0FB6F894DEBF0FBEB4
:100DA000CDBF09942A88398848885F846E847D8401
:100DB0008C849B84AA84B984C884DF80EE80FD8003
:100DC0000C811B81AA81B981CE0FD11D0FB6F89479
:100DD000DEBF0FBECDBFED010895A1E21A2EAA1B02
:100DE000BB1BFD010DC0AA1FBB1FEE1FFF1FA217DB
:100DF000B307E407F50720F0A21BB30BE40BF50BD8
:100E0000661F771F881F991F1A9469F76095709560
:100E1000809590959B01AC01BD01CF010895EE0F27
:100E2000FF1F0590F491E02D09940F931F93CF932A
:100E3000DF938230910510F482E090E0E0913F0270
:100E4000F091400230E020E0B0E0A0E0309799F46B
:100E50002115310509F44AC0281B390B243031050E
:100E6000D8F58A819B816115710589F1FB01938316
:100E70008283FE0111C04081518102811381481794
:100E80005907E0F04817590799F4109761F0129646
:100E90000C93129713961C933296CF01DF91CF914A
:100EA0001F910F91089500933F0210934002F4CFD9
:100EB0002115310551F04217530738F0A901DB0124
:100EC0009A01BD01DF01F801C1CFEF01F9CF909385
:100ED000400280933F02CDCFFE01E20FF31F8193CA
:100EE00091932250310939832883D7CF20913D0235
:100EF00030913E02232B41F42091020130910301F5
:100F000030933E0220933D02209100013091010177
:100F10002115310541F42DB73EB7409104015091A0
:100F20000501241B350BE0913D02F0913E02E217D2
:100F3000F307A0F42E1B3F0B2817390778F0AC01FC
:100F40004E5F5F4F2417350748F04E0F5F1F5093D9
:100F50003E0240933D02819391939FCFF0E0E0E009
:100F60009CCFCF93DF930097E9F0FC013297138277
:100F70001282A0913F02B0914002ED0130E020E0EA
:100F80001097A1F420813181820F931F20913D029F
:100F900030913E022817390709F061C0F0933E02F4
:100FA000E0933D02DF91CF910895EA01CE17DF076C
:100FB000E8F54A815B819E0141155105B1F7E901D0
:100FC000FB83EA8349915991C40FD51FEC17FD07A4
:100FD00061F4808191810296840F951FE9019983C4
:100FE0008883828193819B838A83F0E0E0E012967C
:100FF0008D919C9113970097B9F52D913C91119784
:10100000CD010296820F931F20913D0230913E0246
:101010002817390739F6309751F51092400210928F
:101020003F02B0933E02A0933D02BCCFD383C28364
:1010300040815181840F951FC817D90761F44E5F15
:101040005F4F88819981480F591F518340838A815E
:101050009B81938382832115310509F0B0CFF093F2
:101060004002E0933F029ECFFD01DC01C0CF13821E
:101070001282D7CFB0E0A0E0E0E4F8E00C94B8062C
:101080008C01009751F4CB010E9415078C01C80117
:10109000CDB7DEB7E0E10C94D406FC01E60FF71FF4
:1010A0009C0122503109E217F30708F49DC0D901D1
:1010B000CD91DC911197C617D70798F0C530D105AF
:1010C00030F3CE0104978617970708F3C61BD70B9A
:1010D0002297C193D1936D937C93CF010E94B10766
:1010E000D6CF5B01AC1ABD0A4C018C0E9D1EA0919F
:1010F0003F02B0914002512C412CF12CE12C109771
:1011000031F580913D0290913E028815990509F0D4
:101110005CC04616570608F058C0809100019091B7
:101120000101009741F48DB79EB7409104015091A1
:101130000501841B950BE817F90708F055C0F093DB
:101140003E02E0933D02F90171836083A0CF8D914F
:101150009C91119712966C90129713967C9013970E
:10116000A815B90559F56C0142E0C40ED11CCA148A
:10117000DB0420F1AC014A195B09DA0112961597DC
:1011800080F06282738251834083D9016D937C9396
:10119000E114F10471F0D7011396FC93EE931297CA
:1011A00076CF22968C0F9D1FF90191838083F301E6
:1011B000EFCFF0934002E0933F0269CF4816590603
:1011C00008F42C017D01D3019ACFCB010E941507B1
:1011D0007C01009749F0AE01B8010E94FF08C801E8
:1011E0000E94B107870153CF10E000E050CF91116A
:1011F000089581548A5108F4805E855A0895FB0150
:10120000DC0102C001900D9241505040D8F7089582
:10121000FB01DC018D91019080190110D9F3990B2C
:101220000895FB01DC0101900D920020E1F7089583
:1012300010E0CDE5D0E004C0FE010E940F0721962A
:0A124000CE35D107C9F7F894FFCFAF
:10124A0000004102800000000000B001D000FD0053
:10125A00FD016E010C0160010D0A00626C696E6B82
:10126A00004E616E6F2072656164792E20436F6D46
:10127A006D616E64733A206F6E2C206F66662C2047
:10128A00626C696E6B2C20737461747573006F6E77
:10129A00006F6666004F4B206D6F64653D002075D8
:1012AA007074696D653D00556E6B6E6F776E206365
:1012BA006F6D6D616E643A2000616C69766520001D
:0812CA0073206D6F64653D00A7
:00000001FF
